{
  "transactions": [
    {
      "hash": "0x67d9a12add6c646c3ca28d5a4148a0074f70e3fae5336a349f05db27cd8c28d6",
      "transactionType": "CALL",
      "contractName": null,
      "contractAddress": "0x79a02482a880bce3f13e09da970dc34db4cd24d1",
      "function": "approve(address,uint256)",
      "arguments": [
        "0x28b5a0e9C621a5BadaA536219b3a228C8168cf5d",
        "100000"
      ],
      "transaction": {
        "from": "0x31d2af4c13737c89353710c4c2267e7217bd6aa8",
        "to": "0x79a02482a880bce3f13e09da970dc34db4cd24d1",
        "gas": "0x12b1b",
        "value": "0x0",
        "input": "0x095ea7b300000000000000000000000028b5a0e9c621a5badaa536219b3a228c8168cf5d00000000000000000000000000000000000000000000000000000000000186a0",
        "nonce": "0xd",
        "chainId": "0x1e0"
      },
      "additionalContracts": [],
      "isFixedGasLimit": false
    },
    {
      "hash": "0x52cb1ad257d79e92ca9015bc85fc5cccb6c05b593220398760d760dda0e4a0ee",
      "transactionType": "CALL",
      "contractName": null,
      "contractAddress": "0x28b5a0e9c621a5badaa536219b3a228c8168cf5d",
      "function": "depositForBurnWithHook(uint256,uint32,bytes32,address,bytes32,uint256,uint32,bytes)",
      "arguments": [
        "100000",
        "6",
        "0x000000000000000000000000260857aa3776b50363091839998b8dd688c585d7",
        "0x79A02482A880bCE3F13e09Da970dC34db4CD24d1",
        "0x0000000000000000000000000000000000000000000000000000000000000000",
        "99999",
        "1000",
        "0x000000000000000000000000000000000000000000000000000000000000000200000000000000000000000031d2af4c13737c89353710c4c2267e7217bd6aa800000000000000000000000000000000000000000000000000000000000186a0000000000000000000000000beef010f9cb27031ad51e3333f9af9c6b1228183"
      ],
      "transaction": {
        "from": "0x31d2af4c13737c89353710c4c2267e7217bd6aa8",
        "to": "0x28b5a0e9c621a5badaa536219b3a228c8168cf5d",
        "gas": "0x262ab",
        "value": "0x0",
        "input": "0x779b432d00000000000000000000000000000000000000000000000000000000000186a00000000000000000000000000000000000000000000000000000000000000006000000000000000000000000260857aa3776b50363091839998b8dd688c585d700000000000000000000000079a02482a880bce3f13e09da970dc34db4cd24d10000000000000000000000000000000000000000000000000000000000000000000000000000000000000000000000000000000000000000000000000001869f00000000000000000000000000000000000000000000000000000000000003e800000000000000000000000000000000000000000000000000000000000001000000000000000000000000000000000000000000000000000000000000000080000000000000000000000000000000000000000000000000000000000000000200000000000000000000000031d2af4c13737c89353710c4c2267e7217bd6aa800000000000000000000000000000000000000000000000000000000000186a0000000000000000000000000beef010f9cb27031ad51e3333f9af9c6b1228183",
        "nonce": "0xe",
        "chainId": "0x1e0"
      },
      "additionalContracts": [],
      "isFixedGasLimit": false
    }
  ],
  "receipts": [
    {
      "status": "0x1",
      "cumulativeGasUsed": "0x52337c",
      "logs": [
        {
          "address": "0x79a02482a880bce3f13e09da970dc34db4cd24d1",
          "topics": [
            "0x8c5be1e5ebec7d5bd14f71427d1e84f3dd0314c0f7b2291e5b200ac8c7c3b925",
            "0x00000000000000000000000031d2af4c13737c89353710c4c2267e7217bd6aa8",
            "0x00000000000000000000000028b5a0e9c621a5badaa536219b3a228c8168cf5d"
          ],
          "data": "0x00000000000000000000000000000000000000000000000000000000000186a0",
          "blockHash": "0x2d50a7c8ab33fee05bc3bdf221ec51f00dd7dc31e4ecf1e12a83c2b6fee7c118",
          "blockNumber": "0xf757b2",
          "transactionHash": "0x67d9a12add6c646c3ca28d5a4148a0074f70e3fae5336a349f05db27cd8c28d6",
          "transactionIndex": "0x11",
          "logIndex": "0x66",
          "removed": false
        }
      ],
      "logsBloom": "0x00000000000000000000000000000000000000000000000000000000000000000000000000000000000000000000000000000000000000000000000000200000000000080000000000000000000000000000000000000000000020000000000000000000000000000000000000000000400000000000000000000000000000000000000000000000000000000000004000000000000000000000000000000000020000000800000000000000000000000004008000000000000000000000000000000000080000000000000000000000000000000000000000000000000000000010000000000000000000000000000000000000000000000080000000000000",
      "type": "0x2",
      "transactionHash": "0x67d9a12add6c646c3ca28d5a4148a0074f70e3fae5336a349f05db27cd8c28d6",
      "transactionIndex": "0x11",
      "blockHash": "0x2d50a7c8ab33fee05bc3bdf221ec51f00dd7dc31e4ecf1e12a83c2b6fee7c118",
      "blockNumber": "0xf757b2",
      "gasUsed": "0xd88d",
      "effectiveGasPrice": "0x18a3c",
      "from": "0x31d2af4c13737c89353710c4c2267e7217bd6aa8",
      "to": "0x79a02482a880bce3f13e09da970dc34db4cd24d1",
      "contractAddress": null,
      "l1BaseFeeScalar": "0x21f9",
      "l1BlobBaseFee": "0x1",
      "l1BlobBaseFeeScalar": "0xdd3ef",
      "l1Fee": "0xfc5a3f01",
      "l1GasPrice": "0x12229116",
      "l1GasUsed": "0x640"
    },
    {
      "status": "0x1",
      "cumulativeGasUsed": "0x53ed9a",
      "logs": [
        {
          "address": "0x79a02482a880bce3f13e09da970dc34db4cd24d1",
          "topics": [
            "0xddf252ad1be2c89b69c2b068fc378daa952ba7f163c4a11628f55a4df523b3ef",
            "0x00000000000000000000000031d2af4c13737c89353710c4c2267e7217bd6aa8",
            "0x000000000000000000000000fd78ee919681417d192449715b2594ab58f5d002"
          ],
          "data": "0x00000000000000000000000000000000000000000000000000000000000186a0",
          "blockHash": "0x2d50a7c8ab33fee05bc3bdf221ec51f00dd7dc31e4ecf1e12a83c2b6fee7c118",
          "blockNumber": "0xf757b2",
          "transactionHash": "0x52cb1ad257d79e92ca9015bc85fc5cccb6c05b593220398760d760dda0e4a0ee",
          "transactionIndex": "0x12",
          "logIndex": "0x67",
          "removed": false
        },
        {
          "address": "0x79a02482a880bce3f13e09da970dc34db4cd24d1",
          "topics": [
            "0xcc16f5dbb4873280815c1ee09dbd06736cffcc184412cf7a71a0fdb75d397ca5",
            "0x000000000000000000000000fd78ee919681417d192449715b2594ab58f5d002"
          ],
          "data": "0x00000000000000000000000000000000000000000000000000000000000186a0",
          "blockHash": "0x2d50a7c8ab33fee05bc3bdf221ec51f00dd7dc31e4ecf1e12a83c2b6fee7c118",
          "blockNumber": "0xf757b2",
          "transactionHash": "0x52cb1ad257d79e92ca9015bc85fc5cccb6c05b593220398760d760dda0e4a0ee",
          "transactionIndex": "0x12",
          "logIndex": "0x68",
          "removed": false
        },
        {
          "address": "0x79a02482a880bce3f13e09da970dc34db4cd24d1",
          "topics": [
            "0xddf252ad1be2c89b69c2b068fc378daa952ba7f163c4a11628f55a4df523b3ef",
            "0x000000000000000000000000fd78ee919681417d192449715b2594ab58f5d002",
            "0x0000000000000000000000000000000000000000000000000000000000000000"
          ],
          "data": "0x00000000000000000000000000000000000000000000000000000000000186a0",
          "blockHash": "0x2d50a7c8ab33fee05bc3bdf221ec51f00dd7dc31e4ecf1e12a83c2b6fee7c118",
          "blockNumber": "0xf757b2",
          "transactionHash": "0x52cb1ad257d79e92ca9015bc85fc5cccb6c05b593220398760d760dda0e4a0ee",
          "transactionIndex": "0x12",
          "logIndex": "0x69",
          "removed": false
        },
        {
          "address": "0x81d40f21f12a8f0e3252bccb954d722d4c464b64",
          "topics": [
            "0x8c5261668696ce22758910d05bab8f186d6eb247ceac2af2e82c7dc17669b036"
          ],
          "data": "0x000000000000000000000000000000000000000000000000000000000000002000000000000000000000000000000000000000000000000000000000000001f8000000010000000e00000006000000000000000000000000000000000000000000000000000000000000000000000000000000000000000028b5a0e9c621a5badaa536219b3a228c8168cf5d00000000000000000000000028b5a0e9c621a5badaa536219b3a228c8168cf5d0000000000000000000000000000000000000000000000000000000000000000000003e8000000000000000100000000000000000000000079a02482a880bce3f13e09da970dc34db4cd24d1000000000000000000000000260857aa3776b50363091839998b8dd688c585d700000000000000000000000000000000000000000000000000000000000186a000000000000000000000000031d2af4c13737c89353710c4c2267e7217bd6aa8000000000000000000000000000000000000000000000000000000000001869f00000000000000000000000000000000000000000000000000000000000000000000000000000000000000000000000000000000000000000000000000000000000000000000000000000000000000000000000000000000000000000000000200000000000000000000000031d2af4c13737c89353710c4c2267e7217bd6aa800000000000000000000000000000000000000000000000000000000000186a0000000000000000000000000beef010f9cb27031ad51e3333f9af9c6b12281830000000000000000",
          "blockHash": "0x2d50a7c8ab33fee05bc3bdf221ec51f00dd7dc31e4ecf1e12a83c2b6fee7c118",
          "blockNumber": "0xf757b2",
          "transactionHash": "0x52cb1ad257d79e92ca9015bc85fc5cccb6c05b593220398760d760dda0e4a0ee",
          "transactionIndex": "0x12",
          "logIndex": "0x6a",
          "removed": false
        },
        {
          "address": "0x28b5a0e9c621a5badaa536219b3a228c8168cf5d",
          "topics": [
            "0x0c8c1cbdc5190613ebd485511d4e2812cfa45eecb79d845893331fedad5130a5",
            "0x00000000000000000000000079a02482a880bce3f13e09da970dc34db4cd24d1",
            "0x00000000000000000000000031d2af4c13737c89353710c4c2267e7217bd6aa8",
            "0x00000000000000000000000000000000000000000000000000000000000003e8"
          ],
          "data": "0x00000000000000000000000000000000000000000000000000000000000186a0000000000000000000000000260857aa3776b50363091839998b8dd688c585d7000000000000000000000000000000000000000000000000000000000000000600000000000000000000000028b5a0e9c621a5badaa536219b3a228c8168cf5d0000000000000000000000000000000000000000000000000000000000000000000000000000000000000000000000000000000000000000000000000001869f00000000000000000000000000000000000000000000000000000000000000e00000000000000000000000000000000000000000000000000000000000000080000000000000000000000000000000000000000000000000000000000000000200000000000000000000000031d2af4c13737c89353710c4c2267e7217bd6aa800000000000000000000000000000000000000000000000000000000000186a0000000000000000000000000beef010f9cb27031ad51e3333f9af9c6b1228183",
          "blockHash": "0x2d50a7c8ab33fee05bc3bdf221ec51f00dd7dc31e4ecf1e12a83c2b6fee7c118",
          "blockNumber": "0xf757b2",
          "transactionHash": "0x52cb1ad257d79e92ca9015bc85fc5cccb6c05b593220398760d760dda0e4a0ee",
          "transactionIndex": "0x12",
          "logIndex": "0x6b",
          "removed": false
        }
      ],
      "logsBloom": "0x00000000002000000000000020000000000000000000001000000000000000000000000000000204000000000000000000000000000000000000000000000000000000000000000000000008000000000000000000000000000028100000000000000000020000001000000002000800480000000040000000000010000000000010000200000000000000000000004400000000000040000000000000200000000000000000000000000000002000000004008000000008000002000000000000000002000000200400000000000000000000010000000000000000000020000000000000000000000000000000000000000000000000002080000002000000",
      "type": "0x2",
      "transactionHash": "0x52cb1ad257d79e92ca9015bc85fc5cccb6c05b593220398760d760dda0e4a0ee",
      "transactionIndex": "0x12",
      "blockHash": "0x2d50a7c8ab33fee05bc3bdf221ec51f00dd7dc31e4ecf1e12a83c2b6fee7c118",
      "blockNumber": "0xf757b2",
      "gasUsed": "0x1ba1e",
      "effectiveGasPrice": "0x18a3c",
      "from": "0x31d2af4c13737c89353710c4c2267e7217bd6aa8",
      "to": "0x28b5a0e9c621a5badaa536219b3a228c8168cf5d",
      "contractAddress": null,
      "l1BaseFeeScalar": "0x21f9",
      "l1BlobBaseFee": "0x1",
      "l1BlobBaseFeeScalar": "0xdd3ef",
      "l1Fee": "0x1d6edbd6f",
      "l1GasPrice": "0x12229116",
      "l1GasUsed": "0xba9"
    }
  ],
  "libraries": [],
  "pending": [],
  "returns": {},
  "timestamp": 1751755325,
  "chain": 480,
  "commit": "51175b1"
}