{
  "transactions": [
    {
      "hash": "0x147811c36ef3ecf02276d65cd91576c63516d0350e3a78584de6825cc242044a",
      "transactionType": "CALL",
      "contractName": null,
      "contractAddress": "0x79a02482a880bce3f13e09da970dc34db4cd24d1",
      "function": "approve(address,uint256)",
      "arguments": [
        "0x28b5a0e9C621a5BadaA536219b3a228C8168cf5d",
        "100000"
      ],
      "transaction": {
        "from": "0x31d2af4c13737c89353710c4c2267e7217bd6aa8",
        "to": "0x79a02482a880bce3f13e09da970dc34db4cd24d1",
        "gas": "0x12b1b",
        "value": "0x0",
        "input": "0x095ea7b300000000000000000000000028b5a0e9c621a5badaa536219b3a228c8168cf5d00000000000000000000000000000000000000000000000000000000000186a0",
        "nonce": "0xf",
        "chainId": "0x1e0"
      },
      "additionalContracts": [],
      "isFixedGasLimit": false
    },
    {
      "hash": "0xbd1f94bfb062cad569e2fb5fbb03c391678c2c8f2bff21a1124d12816e83a3b7",
      "transactionType": "CALL",
      "contractName": null,
      "contractAddress": "0x28b5a0e9c621a5badaa536219b3a228c8168cf5d",
      "function": "depositForBurnWithHook(uint256,uint32,bytes32,address,bytes32,uint256,uint32,bytes)",
      "arguments": [
        "100000",
        "6",
        "0x000000000000000000000000260857aa3776b50363091839998b8dd688c585d7",
        "0x79A02482A880bCE3F13e09Da970dC34db4CD24d1",
        "0x0000000000000000000000000000000000000000000000000000000000000000",
        "99999",
        "1000",
        "0x000000000000000000000000000000000000000000000000000000000000000100000000000000000000000031d2af4c13737c89353710c4c2267e7217bd6aa800000000000000000000000000000000000000000000000000000000000186a0000000000000000000000000a238dd80c259a72e81d7e4664a9801593f98d1c5"
      ],
      "transaction": {
        "from": "0x31d2af4c13737c89353710c4c2267e7217bd6aa8",
        "to": "0x28b5a0e9c621a5badaa536219b3a228c8168cf5d",
        "gas": "0x262ab",
        "value": "0x0",
        "input": "0x779b432d00000000000000000000000000000000000000000000000000000000000186a00000000000000000000000000000000000000000000000000000000000000006000000000000000000000000260857aa3776b50363091839998b8dd688c585d700000000000000000000000079a02482a880bce3f13e09da970dc34db4cd24d10000000000000000000000000000000000000000000000000000000000000000000000000000000000000000000000000000000000000000000000000001869f00000000000000000000000000000000000000000000000000000000000003e800000000000000000000000000000000000000000000000000000000000001000000000000000000000000000000000000000000000000000000000000000080000000000000000000000000000000000000000000000000000000000000000100000000000000000000000031d2af4c13737c89353710c4c2267e7217bd6aa800000000000000000000000000000000000000000000000000000000000186a0000000000000000000000000a238dd80c259a72e81d7e4664a9801593f98d1c5",
        "nonce": "0x10",
        "chainId": "0x1e0"
      },
      "additionalContracts": [],
      "isFixedGasLimit": false
    }
  ],
  "receipts": [
    {
      "status": "0x1",
      "cumulativeGasUsed": "0x44cf24",
      "logs": [
        {
          "address": "0x79a02482a880bce3f13e09da970dc34db4cd24d1",
          "topics": [
            "0x8c5be1e5ebec7d5bd14f71427d1e84f3dd0314c0f7b2291e5b200ac8c7c3b925",
            "0x00000000000000000000000031d2af4c13737c89353710c4c2267e7217bd6aa8",
            "0x00000000000000000000000028b5a0e9c621a5badaa536219b3a228c8168cf5d"
          ],
          "data": "0x00000000000000000000000000000000000000000000000000000000000186a0",
          "blockHash": "0x9fafe4b1b96adc01a7d28b11a1d91a9d917fcda0b093080f212382824c4e230d",
          "blockNumber": "0xf75bfa",
          "transactionHash": "0x147811c36ef3ecf02276d65cd91576c63516d0350e3a78584de6825cc242044a",
          "transactionIndex": "0xe",
          "logIndex": "0x57",
          "removed": false
        }
      ],
      "logsBloom": "0x00000000000000000000000000000000000000000000000000000000000000000000000000000000000000000000000000000000000000000000000000200000000000080000000000000000000000000000000000000000000020000000000000000000000000000000000000000000400000000000000000000000000000000000000000000000000000000000004000000000000000000000000000000000020000000800000000000000000000000004008000000000000000000000000000000000080000000000000000000000000000000000000000000000000000000010000000000000000000000000000000000000000000000080000000000000",
      "type": "0x2",
      "transactionHash": "0x147811c36ef3ecf02276d65cd91576c63516d0350e3a78584de6825cc242044a",
      "transactionIndex": "0xe",
      "blockHash": "0x9fafe4b1b96adc01a7d28b11a1d91a9d917fcda0b093080f212382824c4e230d",
      "blockNumber": "0xf75bfa",
      "gasUsed": "0xd88d",
      "effectiveGasPrice": "0x189fc",
      "from": "0x31d2af4c13737c89353710c4c2267e7217bd6aa8",
      "to": "0x79a02482a880bce3f13e09da970dc34db4cd24d1",
      "contractAddress": null,
      "l1BaseFeeScalar": "0x21f9",
      "l1BlobBaseFee": "0x1",
      "l1BlobBaseFeeScalar": "0xdd3ef",
      "l1Fee": "0xdce69cec",
      "l1GasPrice": "0xfdff1ff",
      "l1GasUsed": "0x640"
    },
    {
      "status": "0x1",
      "cumulativeGasUsed": "0x468942",
      "logs": [
        {
          "address": "0x79a02482a880bce3f13e09da970dc34db4cd24d1",
          "topics": [
            "0xddf252ad1be2c89b69c2b068fc378daa952ba7f163c4a11628f55a4df523b3ef",
            "0x00000000000000000000000031d2af4c13737c89353710c4c2267e7217bd6aa8",
            "0x000000000000000000000000fd78ee919681417d192449715b2594ab58f5d002"
          ],
          "data": "0x00000000000000000000000000000000000000000000000000000000000186a0",
          "blockHash": "0x9fafe4b1b96adc01a7d28b11a1d91a9d917fcda0b093080f212382824c4e230d",
          "blockNumber": "0xf75bfa",
          "transactionHash": "0xbd1f94bfb062cad569e2fb5fbb03c391678c2c8f2bff21a1124d12816e83a3b7",
          "transactionIndex": "0xf",
          "logIndex": "0x58",
          "removed": false
        },
        {
          "address": "0x79a02482a880bce3f13e09da970dc34db4cd24d1",
          "topics": [
            "0xcc16f5dbb4873280815c1ee09dbd06736cffcc184412cf7a71a0fdb75d397ca5",
            "0x000000000000000000000000fd78ee919681417d192449715b2594ab58f5d002"
          ],
          "data": "0x00000000000000000000000000000000000000000000000000000000000186a0",
          "blockHash": "0x9fafe4b1b96adc01a7d28b11a1d91a9d917fcda0b093080f212382824c4e230d",
          "blockNumber": "0xf75bfa",
          "transactionHash": "0xbd1f94bfb062cad569e2fb5fbb03c391678c2c8f2bff21a1124d12816e83a3b7",
          "transactionIndex": "0xf",
          "logIndex": "0x59",
          "removed": false
        },
        {
          "address": "0x79a02482a880bce3f13e09da970dc34db4cd24d1",
          "topics": [
            "0xddf252ad1be2c89b69c2b068fc378daa952ba7f163c4a11628f55a4df523b3ef",
            "0x000000000000000000000000fd78ee919681417d192449715b2594ab58f5d002",
            "0x0000000000000000000000000000000000000000000000000000000000000000"
          ],
          "data": "0x00000000000000000000000000000000000000000000000000000000000186a0",
          "blockHash": "0x9fafe4b1b96adc01a7d28b11a1d91a9d917fcda0b093080f212382824c4e230d",
          "blockNumber": "0xf75bfa",
          "transactionHash": "0xbd1f94bfb062cad569e2fb5fbb03c391678c2c8f2bff21a1124d12816e83a3b7",
          "transactionIndex": "0xf",
          "logIndex": "0x5a",
          "removed": false
        },
        {
          "address": "0x81d40f21f12a8f0e3252bccb954d722d4c464b64",
          "topics": [
            "0x8c5261668696ce22758910d05bab8f186d6eb247ceac2af2e82c7dc17669b036"
          ],
          "data": "0x000000000000000000000000000000000000000000000000000000000000002000000000000000000000000000000000000000000000000000000000000001f8000000010000000e00000006000000000000000000000000000000000000000000000000000000000000000000000000000000000000000028b5a0e9c621a5badaa536219b3a228c8168cf5d00000000000000000000000028b5a0e9c621a5badaa536219b3a228c8168cf5d0000000000000000000000000000000000000000000000000000000000000000000003e8000000000000000100000000000000000000000079a02482a880bce3f13e09da970dc34db4cd24d1000000000000000000000000260857aa3776b50363091839998b8dd688c585d700000000000000000000000000000000000000000000000000000000000186a000000000000000000000000031d2af4c13737c89353710c4c2267e7217bd6aa8000000000000000000000000000000000000000000000000000000000001869f00000000000000000000000000000000000000000000000000000000000000000000000000000000000000000000000000000000000000000000000000000000000000000000000000000000000000000000000000000000000000000000000100000000000000000000000031d2af4c13737c89353710c4c2267e7217bd6aa800000000000000000000000000000000000000000000000000000000000186a0000000000000000000000000a238dd80c259a72e81d7e4664a9801593f98d1c50000000000000000",
          "blockHash": "0x9fafe4b1b96adc01a7d28b11a1d91a9d917fcda0b093080f212382824c4e230d",
          "blockNumber": "0xf75bfa",
          "transactionHash": "0xbd1f94bfb062cad569e2fb5fbb03c391678c2c8f2bff21a1124d12816e83a3b7",
          "transactionIndex": "0xf",
          "logIndex": "0x5b",
          "removed": false
        },
        {
          "address": "0x28b5a0e9c621a5badaa536219b3a228c8168cf5d",
          "topics": [
            "0x0c8c1cbdc5190613ebd485511d4e2812cfa45eecb79d845893331fedad5130a5",
            "0x00000000000000000000000079a02482a880bce3f13e09da970dc34db4cd24d1",
            "0x00000000000000000000000031d2af4c13737c89353710c4c2267e7217bd6aa8",
            "0x00000000000000000000000000000000000000000000000000000000000003e8"
          ],
          "data": "0x00000000000000000000000000000000000000000000000000000000000186a0000000000000000000000000260857aa3776b50363091839998b8dd688c585d7000000000000000000000000000000000000000000000000000000000000000600000000000000000000000028b5a0e9c621a5badaa536219b3a228c8168cf5d0000000000000000000000000000000000000000000000000000000000000000000000000000000000000000000000000000000000000000000000000001869f00000000000000000000000000000000000000000000000000000000000000e00000000000000000000000000000000000000000000000000000000000000080000000000000000000000000000000000000000000000000000000000000000100000000000000000000000031d2af4c13737c89353710c4c2267e7217bd6aa800000000000000000000000000000000000000000000000000000000000186a0000000000000000000000000a238dd80c259a72e81d7e4664a9801593f98d1c5",
          "blockHash": "0x9fafe4b1b96adc01a7d28b11a1d91a9d917fcda0b093080f212382824c4e230d",
          "blockNumber": "0xf75bfa",
          "transactionHash": "0xbd1f94bfb062cad569e2fb5fbb03c391678c2c8f2bff21a1124d12816e83a3b7",
          "transactionIndex": "0xf",
          "logIndex": "0x5c",
          "removed": false
        }
      ],
      "logsBloom": "0x00000000002000000000000020000000000000000000001000000000000000000000000000000204000000000000000000000000000000000000000000000000000000000000000000000008000000000000000000000000000028100000000000000000020000001000000002000800480000000040000000000010000000000010000200000000000000000000004400000000000040000000000000200000000000000000000000000000002000000004008000000008000002000000000000000002000000200400000000000000000000010000000000000000000020000000000000000000000000000000000000000000000000002080000002000000",
      "type": "0x2",
      "transactionHash": "0xbd1f94bfb062cad569e2fb5fbb03c391678c2c8f2bff21a1124d12816e83a3b7",
      "transactionIndex": "0xf",
      "blockHash": "0x9fafe4b1b96adc01a7d28b11a1d91a9d917fcda0b093080f212382824c4e230d",
      "blockNumber": "0xf75bfa",
      "gasUsed": "0x1ba1e",
      "effectiveGasPrice": "0x189fc",
      "from": "0x31d2af4c13737c89353710c4c2267e7217bd6aa8",
      "to": "0x28b5a0e9c621a5badaa536219b3a228c8168cf5d",
      "contractAddress": null,
      "l1BaseFeeScalar": "0x21f9",
      "l1BlobBaseFee": "0x1",
      "l1BlobBaseFeeScalar": "0xdd3ef",
      "l1Fee": "0x196b103d6",
      "l1GasPrice": "0xfdff1ff",
      "l1GasUsed": "0xb81"
    }
  ],
  "libraries": [],
  "pending": [],
  "returns": {},
  "timestamp": 1751757516,
  "chain": 480,
  "commit": "51175b1"
}