{
  "transactions": [
    {
      "hash": null,
      "transactionType": "CALL",
      "contractName": null,
      "contractAddress": "0x5fd84259d66cd46123540766be93dfe6d43130d7",
      "function": "approve(address,uint256)",
      "arguments": [
        "0x8FE6B999Dc680CcFDD5Bf7EB0974218be2542DAA",
        "10000000"
      ],
      "transaction": {
        "from": "0x31d2af4c13737c89353710c4c2267e7217bd6aa8",
        "to": "0x5fd84259d66cd46123540766be93dfe6d43130d7",
        "gas": "0x12b1b",
        "value": "0x0",
        "input": "0x095ea7b30000000000000000000000008fe6b999dc680ccfdd5bf7eb0974218be2542daa0000000000000000000000000000000000000000000000000000000000989680",
        "nonce": "0xf",
        "chainId": "0xaa37dc"
      },
      "additionalContracts": [],
      "isFixedGasLimit": false
    },
    {
      "hash": null,
      "transactionType": "CALL",
      "contractName": null,
      "contractAddress": "0x8fe6b999dc680ccfdd5bf7eb0974218be2542daa",
      "function": "depositForBurnWithHook(uint256,uint32,bytes32,address,bytes32,uint256,uint32,bytes)",
      "arguments": [
        "10000000",
        "6",
        "0x00000000000000000000000031d2af4c13737c89353710c4c2267e7217bd6aa8",
        "0x5fd84259d66Cd46123540766Be93DFE6D43130D7",
        "0x0000000000000000000000000000000000000000000000000000000000000000",
        "99999",
        "1000",
        "0x000000000000000000000000000000000000000000000000000000000000000100000000000000000000000031d2af4c13737c89353710c4c2267e7217bd6aa80000000000000000000000000000000000000000000000000000000000989680"
      ],
      "transaction": {
        "from": "0x31d2af4c13737c89353710c4c2267e7217bd6aa8",
        "to": "0x8fe6b999dc680ccfdd5bf7eb0974218be2542daa",
        "gas": "0x24ea1",
        "value": "0x0",
        "input": "0x779b432d0000000000000000000000000000000000000000000000000000000000989680000000000000000000000000000000000000000000000000000000000000000600000000000000000000000031d2af4c13737c89353710c4c2267e7217bd6aa80000000000000000000000005fd84259d66cd46123540766be93dfe6d43130d70000000000000000000000000000000000000000000000000000000000000000000000000000000000000000000000000000000000000000000000000001869f00000000000000000000000000000000000000000000000000000000000003e800000000000000000000000000000000000000000000000000000000000001000000000000000000000000000000000000000000000000000000000000000060000000000000000000000000000000000000000000000000000000000000000100000000000000000000000031d2af4c13737c89353710c4c2267e7217bd6aa80000000000000000000000000000000000000000000000000000000000989680",
        "nonce": "0x10",
        "chainId": "0xaa37dc"
      },
      "additionalContracts": [],
      "isFixedGasLimit": false
    }
  ],
  "receipts": [],
  "libraries": [],
  "pending": [],
  "returns": {},
  "timestamp": 1751668784,
  "chain": 11155420,
  "commit": "75a5ff8"
}