{
  "transactions": [
    {
      "hash": "0xf3295dbb1e7a9e37e6c1febe9de1594dfe28bf763b0fa908e7e4d9332580a4c6",
      "transactionType": "CALL",
      "contractName": null,
      "contractAddress": "0x833589fcd6edb6e08f4c7c32d4f71b54bda02913",
      "function": "approve(address,uint256)",
      "arguments": [
        "0x28b5a0e9C621a5BadaA536219b3a228C8168cf5d",
        "100000"
      ],
      "transaction": {
        "from": "0x31d2af4c13737c89353710c4c2267e7217bd6aa8",
        "to": "0x833589fcd6edb6e08f4c7c32d4f71b54bda02913",
        "gas": "0x12b1b",
        "value": "0x0",
        "input": "0x095ea7b300000000000000000000000028b5a0e9c621a5badaa536219b3a228c8168cf5d00000000000000000000000000000000000000000000000000000000000186a0",
        "nonce": "0xb",
        "chainId": "0x2105"
      },
      "additionalContracts": [],
      "isFixedGasLimit": false
    },
    {
      "hash": "0x650ccd4de7ee492dc5890f812d99b1ac70bf568ffc6c1435ecc0a6a924a1a6a9",
      "transactionType": "CALL",
      "contractName": null,
      "contractAddress": "0x28b5a0e9c621a5badaa536219b3a228c8168cf5d",
      "function": "depositForBurnWithHook(uint256,uint32,bytes32,address,bytes32,uint256,uint32,bytes)",
      "arguments": [
        "100000",
        "3",
        "0x0000000000000000000000005615deb798bb3e4dfa0139dfa1b3d433cc23b72f",
        "0x833589fCD6eDb6E08f4c7C32D4f71b54bdA02913",
        "0x0000000000000000000000000000000000000000000000000000000000000000",
        "99999",
        "1000",
        "0x000000000000000000000000000000000000000000000000000000000000000200000000000000000000000031d2af4c13737c89353710c4c2267e7217bd6aa800000000000000000000000000000000000000000000000000000000000186a0000000000000000000000000beef010f9cb27031ad51e3333f9af9c6b1228183"
      ],
      "transaction": {
        "from": "0x31d2af4c13737c89353710c4c2267e7217bd6aa8",
        "to": "0x28b5a0e9c621a5badaa536219b3a228c8168cf5d",
        "gas": "0x262ab",
        "value": "0x0",
        "input": "0x779b432d00000000000000000000000000000000000000000000000000000000000186a000000000000000000000000000000000000000000000000000000000000000030000000000000000000000005615deb798bb3e4dfa0139dfa1b3d433cc23b72f000000000000000000000000833589fcd6edb6e08f4c7c32d4f71b54bda029130000000000000000000000000000000000000000000000000000000000000000000000000000000000000000000000000000000000000000000000000001869f00000000000000000000000000000000000000000000000000000000000003e800000000000000000000000000000000000000000000000000000000000001000000000000000000000000000000000000000000000000000000000000000080000000000000000000000000000000000000000000000000000000000000000200000000000000000000000031d2af4c13737c89353710c4c2267e7217bd6aa800000000000000000000000000000000000000000000000000000000000186a0000000000000000000000000beef010f9cb27031ad51e3333f9af9c6b1228183",
        "nonce": "0xc",
        "chainId": "0x2105"
      },
      "additionalContracts": [],
      "isFixedGasLimit": false
    }
  ],
  "receipts": [
    {
      "status": "0x1",
      "cumulativeGasUsed": "0x3133d58",
      "logs": [
        {
          "address": "0x833589fcd6edb6e08f4c7c32d4f71b54bda02913",
          "topics": [
            "0x8c5be1e5ebec7d5bd14f71427d1e84f3dd0314c0f7b2291e5b200ac8c7c3b925",
            "0x00000000000000000000000031d2af4c13737c89353710c4c2267e7217bd6aa8",
            "0x00000000000000000000000028b5a0e9c621a5badaa536219b3a228c8168cf5d"
          ],
          "data": "0x00000000000000000000000000000000000000000000000000000000000186a0",
          "blockHash": "0x05288bd2813dc5a01652ba9e4121d8dd016c455d5848743d7d45133490412b04",
          "blockNumber": "0x1ef94bb",
          "transactionHash": "0xf3295dbb1e7a9e37e6c1febe9de1594dfe28bf763b0fa908e7e4d9332580a4c6",
          "transactionIndex": "0x90",
          "logIndex": "0x35d",
          "removed": false
        }
      ],
      "logsBloom": "0x00000000000000000000000000000000000000000000000000000000000000000000000000000000000000000000100000000000000000000000000000200000000000080000000000000000000000000000000000080000000020000000000000800000000000000000000000000000400000000000000000000000000000000000000000000000000000000000000000000000000000000000000000000000020000000800000000000000000000000000008000000000000000000000000000000000080000000000000000000000000000000000000000000000000000000010000000000000000000000000000000000000000000000000000000000000",
      "type": "0x2",
      "transactionHash": "0xf3295dbb1e7a9e37e6c1febe9de1594dfe28bf763b0fa908e7e4d9332580a4c6",
      "transactionIndex": "0x90",
      "blockHash": "0x05288bd2813dc5a01652ba9e4121d8dd016c455d5848743d7d45133490412b04",
      "blockNumber": "0x1ef94bb",
      "gasUsed": "0xd88d",
      "effectiveGasPrice": "0x5a380",
      "from": "0x31d2af4c13737c89353710c4c2267e7217bd6aa8",
      "to": "0x833589fcd6edb6e08f4c7c32d4f71b54bda02913",
      "contractAddress": null,
      "l1BaseFeeScalar": "0x8dd",
      "l1BlobBaseFee": "0x1",
      "l1BlobBaseFeeScalar": "0x101c12",
      "l1Fee": "0x474a1f5c",
      "l1GasPrice": "0x13a3070f",
      "l1GasUsed": "0x640"
    },
    {
      "status": "0x1",
      "cumulativeGasUsed": "0x314f776",
      "logs": [
        {
          "address": "0x833589fcd6edb6e08f4c7c32d4f71b54bda02913",
          "topics": [
            "0xddf252ad1be2c89b69c2b068fc378daa952ba7f163c4a11628f55a4df523b3ef",
            "0x00000000000000000000000031d2af4c13737c89353710c4c2267e7217bd6aa8",
            "0x000000000000000000000000fd78ee919681417d192449715b2594ab58f5d002"
          ],
          "data": "0x00000000000000000000000000000000000000000000000000000000000186a0",
          "blockHash": "0x05288bd2813dc5a01652ba9e4121d8dd016c455d5848743d7d45133490412b04",
          "blockNumber": "0x1ef94bb",
          "transactionHash": "0x650ccd4de7ee492dc5890f812d99b1ac70bf568ffc6c1435ecc0a6a924a1a6a9",
          "transactionIndex": "0x91",
          "logIndex": "0x35e",
          "removed": false
        },
        {
          "address": "0x833589fcd6edb6e08f4c7c32d4f71b54bda02913",
          "topics": [
            "0xcc16f5dbb4873280815c1ee09dbd06736cffcc184412cf7a71a0fdb75d397ca5",
            "0x000000000000000000000000fd78ee919681417d192449715b2594ab58f5d002"
          ],
          "data": "0x00000000000000000000000000000000000000000000000000000000000186a0",
          "blockHash": "0x05288bd2813dc5a01652ba9e4121d8dd016c455d5848743d7d45133490412b04",
          "blockNumber": "0x1ef94bb",
          "transactionHash": "0x650ccd4de7ee492dc5890f812d99b1ac70bf568ffc6c1435ecc0a6a924a1a6a9",
          "transactionIndex": "0x91",
          "logIndex": "0x35f",
          "removed": false
        },
        {
          "address": "0x833589fcd6edb6e08f4c7c32d4f71b54bda02913",
          "topics": [
            "0xddf252ad1be2c89b69c2b068fc378daa952ba7f163c4a11628f55a4df523b3ef",
            "0x000000000000000000000000fd78ee919681417d192449715b2594ab58f5d002",
            "0x0000000000000000000000000000000000000000000000000000000000000000"
          ],
          "data": "0x00000000000000000000000000000000000000000000000000000000000186a0",
          "blockHash": "0x05288bd2813dc5a01652ba9e4121d8dd016c455d5848743d7d45133490412b04",
          "blockNumber": "0x1ef94bb",
          "transactionHash": "0x650ccd4de7ee492dc5890f812d99b1ac70bf568ffc6c1435ecc0a6a924a1a6a9",
          "transactionIndex": "0x91",
          "logIndex": "0x360",
          "removed": false
        },
        {
          "address": "0x81d40f21f12a8f0e3252bccb954d722d4c464b64",
          "topics": [
            "0x8c5261668696ce22758910d05bab8f186d6eb247ceac2af2e82c7dc17669b036"
          ],
          "data": "0x000000000000000000000000000000000000000000000000000000000000002000000000000000000000000000000000000000000000000000000000000001f8000000010000000600000003000000000000000000000000000000000000000000000000000000000000000000000000000000000000000028b5a0e9c621a5badaa536219b3a228c8168cf5d00000000000000000000000028b5a0e9c621a5badaa536219b3a228c8168cf5d0000000000000000000000000000000000000000000000000000000000000000000003e80000000000000001000000000000000000000000833589fcd6edb6e08f4c7c32d4f71b54bda029130000000000000000000000005615deb798bb3e4dfa0139dfa1b3d433cc23b72f00000000000000000000000000000000000000000000000000000000000186a000000000000000000000000031d2af4c13737c89353710c4c2267e7217bd6aa8000000000000000000000000000000000000000000000000000000000001869f00000000000000000000000000000000000000000000000000000000000000000000000000000000000000000000000000000000000000000000000000000000000000000000000000000000000000000000000000000000000000000000000200000000000000000000000031d2af4c13737c89353710c4c2267e7217bd6aa800000000000000000000000000000000000000000000000000000000000186a0000000000000000000000000beef010f9cb27031ad51e3333f9af9c6b12281830000000000000000",
          "blockHash": "0x05288bd2813dc5a01652ba9e4121d8dd016c455d5848743d7d45133490412b04",
          "blockNumber": "0x1ef94bb",
          "transactionHash": "0x650ccd4de7ee492dc5890f812d99b1ac70bf568ffc6c1435ecc0a6a924a1a6a9",
          "transactionIndex": "0x91",
          "logIndex": "0x361",
          "removed": false
        },
        {
          "address": "0x28b5a0e9c621a5badaa536219b3a228c8168cf5d",
          "topics": [
            "0x0c8c1cbdc5190613ebd485511d4e2812cfa45eecb79d845893331fedad5130a5",
            "0x000000000000000000000000833589fcd6edb6e08f4c7c32d4f71b54bda02913",
            "0x00000000000000000000000031d2af4c13737c89353710c4c2267e7217bd6aa8",
            "0x00000000000000000000000000000000000000000000000000000000000003e8"
          ],
          "data": "0x00000000000000000000000000000000000000000000000000000000000186a00000000000000000000000005615deb798bb3e4dfa0139dfa1b3d433cc23b72f000000000000000000000000000000000000000000000000000000000000000300000000000000000000000028b5a0e9c621a5badaa536219b3a228c8168cf5d0000000000000000000000000000000000000000000000000000000000000000000000000000000000000000000000000000000000000000000000000001869f00000000000000000000000000000000000000000000000000000000000000e00000000000000000000000000000000000000000000000000000000000000080000000000000000000000000000000000000000000000000000000000000000200000000000000000000000031d2af4c13737c89353710c4c2267e7217bd6aa800000000000000000000000000000000000000000000000000000000000186a0000000000000000000000000beef010f9cb27031ad51e3333f9af9c6b1228183",
          "blockHash": "0x05288bd2813dc5a01652ba9e4121d8dd016c455d5848743d7d45133490412b04",
          "blockNumber": "0x1ef94bb",
          "transactionHash": "0x650ccd4de7ee492dc5890f812d99b1ac70bf568ffc6c1435ecc0a6a924a1a6a9",
          "transactionIndex": "0x91",
          "logIndex": "0x362",
          "removed": false
        }
      ],
      "logsBloom": "0x00000000002000000000000020000000000000000000001000000000000000000000000000000204000000000000100000000000000000000000000000000000000000000000040000000008000000000000000000080000000028100000000000800000020000001000000002000800490000000040000000000010000000000010000200000000400000000000000000000000000040000000000000200000000000000000000000000000002000000000008000000008000002000000000000000002000000000400000000000000000000010000000000000000000020000000000000000000000000000000000000000000000000000000000002000000",
      "type": "0x2",
      "transactionHash": "0x650ccd4de7ee492dc5890f812d99b1ac70bf568ffc6c1435ecc0a6a924a1a6a9",
      "transactionIndex": "0x91",
      "blockHash": "0x05288bd2813dc5a01652ba9e4121d8dd016c455d5848743d7d45133490412b04",
      "blockNumber": "0x1ef94bb",
      "gasUsed": "0x1ba1e",
      "effectiveGasPrice": "0x5a380",
      "from": "0x31d2af4c13737c89353710c4c2267e7217bd6aa8",
      "to": "0x28b5a0e9c621a5badaa536219b3a228c8168cf5d",
      "contractAddress": null,
      "l1BaseFeeScalar": "0x8dd",
      "l1BlobBaseFee": "0x1",
      "l1BlobBaseFeeScalar": "0x101c12",
      "l1Fee": "0x85a2338e",
      "l1GasPrice": "0x13a3070f",
      "l1GasUsed": "0xbb7"
    }
  ],
  "libraries": [],
  "pending": [],
  "returns": {},
  "timestamp": 1751746138,
  "chain": 8453,
  "commit": "873a763"
}