{
  "transactions": [
    {
      "hash": "0x69532cc487360609e7c727d0afd85b803ed7d27b82f16fdc2030781a10dbdda1",
      "transactionType": "CALL",
      "contractName": null,
      "contractAddress": "0x5fd84259d66cd46123540766be93dfe6d43130d7",
      "function": "approve(address,uint256)",
      "arguments": [
        "0x8FE6B999Dc680CcFDD5Bf7EB0974218be2542DAA",
        "100000"
      ],
      "transaction": {
        "from": "0x31d2af4c13737c89353710c4c2267e7217bd6aa8",
        "to": "0x5fd84259d66cd46123540766be93dfe6d43130d7",
        "gas": "0x12b1b",
        "value": "0x0",
        "input": "0x095ea7b30000000000000000000000008fe6b999dc680ccfdd5bf7eb0974218be2542daa00000000000000000000000000000000000000000000000000000000000186a0",
        "nonce": "0x11",
        "chainId": "0xaa37dc"
      },
      "additionalContracts": [],
      "isFixedGasLimit": false
    },
    {
      "hash": "0xa22ea6f32bb987cb5c784f73e03fabd85fe18b09f63fc8ae3b935f627fc6a4b9",
      "transactionType": "CALL",
      "contractName": null,
      "contractAddress": "0x8fe6b999dc680ccfdd5bf7eb0974218be2542daa",
      "function": "depositForBurnWithHook(uint256,uint32,bytes32,address,bytes32,uint256,uint32,bytes)",
      "arguments": [
        "100000",
        "0",
        "0x0000000000000000000000005615deb798bb3e4dfa0139dfa1b3d433cc23b72f",
        "0x5fd84259d66Cd46123540766Be93DFE6D43130D7",
        "0x0000000000000000000000000000000000000000000000000000000000000000",
        "99999",
        "1000",
        "0x000000000000000000000000000000000000000000000000000000000000000100000000000000000000000031d2af4c13737c89353710c4c2267e7217bd6aa800000000000000000000000000000000000000000000000000000000000186a0"
      ],
      "transaction": {
        "from": "0x31d2af4c13737c89353710c4c2267e7217bd6aa8",
        "to": "0x8fe6b999dc680ccfdd5bf7eb0974218be2542daa",
        "gas": "0x2808b",
        "value": "0x0",
        "input": "0x779b432d00000000000000000000000000000000000000000000000000000000000186a000000000000000000000000000000000000000000000000000000000000000000000000000000000000000005615deb798bb3e4dfa0139dfa1b3d433cc23b72f0000000000000000000000005fd84259d66cd46123540766be93dfe6d43130d70000000000000000000000000000000000000000000000000000000000000000000000000000000000000000000000000000000000000000000000000001869f00000000000000000000000000000000000000000000000000000000000003e800000000000000000000000000000000000000000000000000000000000001000000000000000000000000000000000000000000000000000000000000000060000000000000000000000000000000000000000000000000000000000000000100000000000000000000000031d2af4c13737c89353710c4c2267e7217bd6aa800000000000000000000000000000000000000000000000000000000000186a0",
        "nonce": "0x12",
        "chainId": "0xaa37dc"
      },
      "additionalContracts": [],
      "isFixedGasLimit": false
    }
  ],
  "receipts": [],
  "libraries": [],
  "pending": [],
  "returns": {},
  "timestamp": 1751708087,
  "chain": 11155420,
  "commit": "ac00118"
}