{
  "transactions": [
    {
      "hash": "0x96373a48dd3aaf6d693ff2988c96405a1455a6ce82b6c5cabd1410b9c9ccabfe",
      "transactionType": "CALL",
      "contractName": null,
      "contractAddress": "0x5fd84259d66cd46123540766be93dfe6d43130d7",
      "function": "approve(address,uint256)",
      "arguments": [
        "0x8FE6B999Dc680CcFDD5Bf7EB0974218be2542DAA",
        "100000"
      ],
      "transaction": {
        "from": "0x31d2af4c13737c89353710c4c2267e7217bd6aa8",
        "to": "0x5fd84259d66cd46123540766be93dfe6d43130d7",
        "gas": "0x12b1b",
        "value": "0x0",
        "input": "0x095ea7b30000000000000000000000008fe6b999dc680ccfdd5bf7eb0974218be2542daa00000000000000000000000000000000000000000000000000000000000186a0",
        "nonce": "0xf",
        "chainId": "0xaa37dc"
      },
      "additionalContracts": [],
      "isFixedGasLimit": false
    },
    {
      "hash": "0x1f0913761d477207f3d37b2a25232098d61b78346edaf6c7ef38cfd5444665d2",
      "transactionType": "CALL",
      "contractName": null,
      "contractAddress": "0x8fe6b999dc680ccfdd5bf7eb0974218be2542daa",
      "function": "depositForBurnWithHook(uint256,uint32,bytes32,address,bytes32,uint256,uint32,bytes)",
      "arguments": [
        "100000",
        "6",
        "0x0000000000000000000000005615deb798bb3e4dfa0139dfa1b3d433cc23b72f",
        "0x5fd84259d66Cd46123540766Be93DFE6D43130D7",
        "0x0000000000000000000000000000000000000000000000000000000000000000",
        "99999",
        "1000",
        "0x000000000000000000000000000000000000000000000000000000000000000100000000000000000000000031d2af4c13737c89353710c4c2267e7217bd6aa800000000000000000000000000000000000000000000000000000000000186a0"
      ],
      "transaction": {
        "from": "0x31d2af4c13737c89353710c4c2267e7217bd6aa8",
        "to": "0x8fe6b999dc680ccfdd5bf7eb0974218be2542daa",
        "gas": "0x25d05",
        "value": "0x0",
        "input": "0x779b432d00000000000000000000000000000000000000000000000000000000000186a000000000000000000000000000000000000000000000000000000000000000060000000000000000000000005615deb798bb3e4dfa0139dfa1b3d433cc23b72f0000000000000000000000005fd84259d66cd46123540766be93dfe6d43130d70000000000000000000000000000000000000000000000000000000000000000000000000000000000000000000000000000000000000000000000000001869f00000000000000000000000000000000000000000000000000000000000003e800000000000000000000000000000000000000000000000000000000000001000000000000000000000000000000000000000000000000000000000000000060000000000000000000000000000000000000000000000000000000000000000100000000000000000000000031d2af4c13737c89353710c4c2267e7217bd6aa800000000000000000000000000000000000000000000000000000000000186a0",
        "nonce": "0x10",
        "chainId": "0xaa37dc"
      },
      "additionalContracts": [],
      "isFixedGasLimit": false
    }
  ],
  "receipts": [
    {
      "status": "0x1",
      "cumulativeGasUsed": "0x25195",
      "logs": [
        {
          "address": "0x5fd84259d66cd46123540766be93dfe6d43130d7",
          "topics": [
            "0x8c5be1e5ebec7d5bd14f71427d1e84f3dd0314c0f7b2291e5b200ac8c7c3b925",
            "0x00000000000000000000000031d2af4c13737c89353710c4c2267e7217bd6aa8",
            "0x0000000000000000000000008fe6b999dc680ccfdd5bf7eb0974218be2542daa"
          ],
          "data": "0x00000000000000000000000000000000000000000000000000000000000186a0",
          "blockHash": "0x21f2a1c9b9d552286d804dae9bb73b4d04599c652dbf0a9fd2cfdb870bab9954",
          "blockNumber": "0x1c8be83",
          "transactionHash": "0x96373a48dd3aaf6d693ff2988c96405a1455a6ce82b6c5cabd1410b9c9ccabfe",
          "transactionIndex": "0x3",
          "logIndex": "0x0",
          "removed": false
        }
      ],
      "logsBloom": "0x00020004000000000000000000000000000000000000000000000000000000000000000000000000000000000000000000000000000000000000020000200000000000000000000000000000000000000000000000000000000020000000000000000000000000000000008000000000400000200000000000000000000000000000000000000000000000000000000000000000000000000000000000000000020000000000000000000000000000000000008400000000000000000000000000000000000000000000000000000000000000000000000000000000000000000010000000000000000000000000000000000000000000000000000000000000",
      "type": "0x2",
      "transactionHash": "0x96373a48dd3aaf6d693ff2988c96405a1455a6ce82b6c5cabd1410b9c9ccabfe",
      "transactionIndex": "0x3",
      "blockHash": "0x21f2a1c9b9d552286d804dae9bb73b4d04599c652dbf0a9fd2cfdb870bab9954",
      "blockNumber": "0x1c8be83",
      "gasUsed": "0xd88d",
      "effectiveGasPrice": "0xf433a",
      "blobGasUsed": "0x0",
      "from": "0x31d2af4c13737c89353710c4c2267e7217bd6aa8",
      "to": "0x5fd84259d66cd46123540766be93dfe6d43130d7",
      "contractAddress": null,
      "l1BaseFeeScalar": "0x1db0",
      "l1BlobBaseFee": "0x1",
      "l1BlobBaseFeeScalar": "0xd2730",
      "l1Fee": "0x23eff2",
      "l1GasPrice": "0x2f48c",
      "l1GasUsed": "0x640"
    }
  ],
  "libraries": [],
  "pending": [],
  "returns": {},
  "timestamp": 1751668915,
  "chain": 11155420,
  "commit": "75a5ff8"
}